{
    "contractName": "UserProfileManager",
    "abi": [
        {
            "inputs": [
                {
                    "internalType": "bytes[]",
                    "name": "_encodedExperiences",
                    "type": "bytes[]"
                }
            ],
            "name": "addExperiences",
            "outputs": [],
            "stateMutability": "nonpayable",
            "type": "function"
        },
        {
            "inputs": [
                {
                    "internalType": "bytes[]",
                    "name": "_encodedProjects",
                    "type": "bytes[]"
                }
            ],
            "name": "addProjects",
            "outputs": [],
            "stateMutability": "nonpayable",
            "type": "function"
        },
        {
            "inputs": [
                {
                    "internalType": "bytes[]",
                    "name": "_encodedSoftSkills",
                    "type": "bytes[]"
                }
            ],
            "name": "addSoftSkills",
            "outputs": [],
            "stateMutability": "nonpayable",
            "type": "function"
        },
        {
            "inputs": [
                {
                    "internalType": "bytes[]",
                    "name": "_encodedTechnicalSkills",
                    "type": "bytes[]"
                }
            ],
            "name": "addTechnicalSkills",
            "outputs": [],
            "stateMutability": "nonpayable",
            "type": "function"
        },
        {
            "inputs": [
                {
                    "internalType": "string",
                    "name": "_name",
                    "type": "string"
                }
            ],
            "name": "createBaseProfile",
            "outputs": [],
            "stateMutability": "nonpayable",
            "type": "function"
        },
        {
            "inputs": [
                {
                    "internalType": "address",
                    "name": "_address",
                    "type": "address"
                }
            ],
            "name": "getUserProfile",
            "outputs": [
                {
                    "components": [
                        {
                            "internalType": "uint256",
                            "name": "id",
                            "type": "uint256"
                        },
                        {
                            "internalType": "string",
                            "name": "name",
                            "type": "string"
                        },
                        {
                            "components": [
                                {
                                    "internalType": "string",
                                    "name": "skillName",
                                    "type": "string"
                                },
                                {
                                    "internalType": "uint256",
                                    "name": "experience",
                                    "type": "uint256"
                                },
                                {
                                    "internalType": "bool",
                                    "name": "verified",
                                    "type": "bool"
                                }
                            ],
                            "internalType": "struct UserProfileManager.Skill[]",
                            "name": "technicalSkills",
                            "type": "tuple[]"
                        },
                        {
                            "components": [
                                {
                                    "internalType": "string",
                                    "name": "skillName",
                                    "type": "string"
                                },
                                {
                                    "internalType": "uint256",
                                    "name": "experience",
                                    "type": "uint256"
                                },
                                {
                                    "internalType": "bool",
                                    "name": "verified",
                                    "type": "bool"
                                }
                            ],
                            "internalType": "struct UserProfileManager.Skill[]",
                            "name": "softSkills",
                            "type": "tuple[]"
                        },
                        {
                            "components": [
                                {
                                    "internalType": "string",
                                    "name": "industry",
                                    "type": "string"
                                },
                                {
                                    "internalType": "string",
                                    "name": "jobTitle",
                                    "type": "string"
                                },
                                {
                                    "internalType": "uint256",
                                    "name": "experience",
                                    "type": "uint256"
                                },
                                {
                                    "internalType": "bool",
                                    "name": "verified",
                                    "type": "bool"
                                }
                            ],
                            "internalType": "struct UserProfileManager.Experience[]",
                            "name": "experiences",
                            "type": "tuple[]"
                        },
                        {
                            "components": [
                                {
                                    "internalType": "string",
                                    "name": "name",
                                    "type": "string"
                                },
                                {
                                    "internalType": "string",
                                    "name": "link",
                                    "type": "string"
                                },
                                {
                                    "internalType": "string[]",
                                    "name": "skillsApplied",
                                    "type": "string[]"
                                },
                                {
                                    "internalType": "string[]",
                                    "name": "toolsUsed",
                                    "type": "string[]"
                                },
                                {
                                    "internalType": "string",
                                    "name": "role",
                                    "type": "string"
                                },
                                {
                                    "internalType": "string",
                                    "name": "description",
                                    "type": "string"
                                },
                                {
                                    "internalType": "bool",
                                    "name": "verified",
                                    "type": "bool"
                                }
                            ],
                            "internalType": "struct UserProfileManager.Project[]",
                            "name": "projects",
                            "type": "tuple[]"
                        },
                        {
                            "components": [
                                {
                                    "internalType": "string",
                                    "name": "content",
                                    "type": "string"
                                },
                                {
                                    "internalType": "string",
                                    "name": "industry",
                                    "type": "string"
                                },
                                {
                                    "internalType": "string",
                                    "name": "skill",
                                    "type": "string"
                                },
                                {
                                    "internalType": "bool",
                                    "name": "verified",
                                    "type": "bool"
                                }
                            ],
                            "internalType": "struct UserProfileManager.Achievement[]",
                            "name": "achievements",
                            "type": "tuple[]"
                        },
                        {
                            "components": [
                                {
                                    "internalType": "string",
                                    "name": "content",
                                    "type": "string"
                                },
                                {
                                    "internalType": "string",
                                    "name": "endorser",
                                    "type": "string"
                                },
                                {
                                    "internalType": "string[]",
                                    "name": "skillsRelated",
                                    "type": "string[]"
                                },
                                {
                                    "internalType": "bool",
                                    "name": "verified",
                                    "type": "bool"
                                }
                            ],
                            "internalType": "struct UserProfileManager.Endorsement[]",
                            "name": "endorsements",
                            "type": "tuple[]"
                        },
                        {
                            "components": [
                                {
                                    "internalType": "uint256",
                                    "name": "id",
                                    "type": "uint256"
                                },
                                {
                                    "internalType": "address",
                                    "name": "professional",
                                    "type": "address"
                                },
                                {
                                    "internalType": "string",
                                    "name": "content",
                                    "type": "string"
                                },
                                {
                                    "internalType": "bool",
                                    "name": "verified",
                                    "type": "bool"
                                }
                            ],
                            "internalType": "struct UserProfileManager.Claim[]",
                            "name": "claims",
                            "type": "tuple[]"
                        }
                    ],
                    "internalType": "struct UserProfileManager.UserProfile",
                    "name": "",
                    "type": "tuple"
                }
            ],
            "stateMutability": "view",
            "type": "function"
        },
        {
            "inputs": [
                {
                    "internalType": "address",
                    "name": "",
                    "type": "address"
                }
            ],
            "name": "profileExists",
            "outputs": [
                {
                    "internalType": "bool",
                    "name": "",
                    "type": "bool"
                }
            ],
            "stateMutability": "view",
            "type": "function"
        },
        {
            "inputs": [],
            "name": "userCounter",
            "outputs": [
                {
                    "internalType": "uint256",
                    "name": "",
                    "type": "uint256"
                }
            ],
            "stateMutability": "view",
            "type": "function"
        },
        {
            "inputs": [
                {
                    "internalType": "address",
                    "name": "",
                    "type": "address"
                }
            ],
            "name": "userProfiles",
            "outputs": [
                {
                    "internalType": "uint256",
                    "name": "id",
                    "type": "uint256"
                },
                {
                    "internalType": "string",
                    "name": "name",
                    "type": "string"
                }
            ],
            "stateMutability": "view",
            "type": "function"
        }
    ],
    "bytecode": "60808060405234601557611fa9908161001a8239f35b5f80fdfe6080806040526004361015610012575f80fd5b5f3560e01c90816305cfa06f1461182f575080630ae1fca1146116585780630d76cad9146115fc57806325c72737146112e3578063332d56d71461128357806376c09c26146111f5578063987ee156146109f5578063d7b825701461009f5763f0c37a591461007f575f80fd5b3461009b575f36600319011261009b5760205f54604051908152f35b5f80fd5b3461009b576100ad36611963565b335f5260026020526100c560ff60405f205416611bf5565b335f52600160205260405f209060055f9201915b81518110156109f3576100ec8183611c3a565b518051810160e0826020830192031261009b5760208201516001600160401b03811161009b5781602061012192850101611c4e565b9160408101516001600160401b03811161009b5782602061014492840101611c4e565b9160608201516001600160401b03811161009b5781602061016792850101611ef5565b60808301516001600160401b03811161009b5782602061018992860101611ef5565b9060a08401516001600160401b03811161009b578360206101ac92870101611c4e565b9260c0850151906001600160401b03821161009b576101d560e09160206101dc94890101611c4e565b9501611c94565b94604051966101ea886118bf565b87526020870190815260408701918252606087019283526080870193845260a0870194855260c0870195151586528954600160401b8110156104f95760018101808c558110156109df578a5f52600760205f2091020196518051906001600160401b0382116104f95761025d8954611a14565b601f81116109af575b50602090601f831160011461094c5761029692915f91836108ae575b50508160011b915f199060031b1c19161790565b87555b51805160018801916001600160401b0382116104f9576102b98354611a14565b601f811161091c575b50602090601f83116001146108b9576102f192915f91836108ae5750508160011b915f199060031b1c19161790565b90555b5180516002870191600160401b82116104f9578254828455808310610837575b50602001915f5260205f205f925b8284106107325750505050600385019051805190600160401b82116104f95782548284558083106106bb575b50602001915f5260205f205f925b8284106105ab57505050506004840190518051906001600160401b0382116104f9576103888354611a14565b601f811161057b575b50602090601f8311600114610518576103c092915f918361050d5750508160011b915f199060031b1c19161790565b90555b51805160058401916001600160401b0382116104f9576103e38354611a14565b601f81116104be575b50602090601f8311600114610451579261042783600694610440979460019a99975f926104465750508160011b915f199060031b1c19161790565b90555b51151591019060ff801983541691151516179055565b016100d9565b015190508c80610282565b90601f19831691845f52815f20925f5b8181106104a657509361044096936001999896938a93836006981061048e575b505050811b01905561042a565b01515f1960f88460031b161c191690558b8080610481565b92936020600181928786015181550195019301610461565b6104e990845f5260205f20601f850160051c810191602086106104ef575b601f0160051c0190611bdf565b886103ec565b90915081906104dc565b634e487b7160e01b5f52604160045260245ffd5b015190508a80610282565b90601f19831691845f52815f20925f5b818110610563575090846001959493921061054b575b505050811b0190556103c3565b01515f1960f88460031b161c1916905589808061053e565b92936020600181928786015181550195019301610528565b6105a590845f5260205f20601f850160051c810191602086106104ef57601f0160051c0190611bdf565b89610391565b80518051906001600160401b0382116104f9576105c88454611a14565b601f811161068b575b50602090601f83116001146106225792610608836001959460209487965f926106175750508160011b915f199060031b1c19161790565b85555b0192019301929061035c565b015190505f80610282565b90601f19831691855f52815f20925f5b818110610673575093602093600196938796938388951061065b575b505050811b01855561060b565b01515f1960f88460031b161c191690555f808061064e565b92936020600181928786015181550195019301610632565b6106b590855f5260205f20601f850160051c810191602086106104ef57601f0160051c0190611bdf565b8d6105d1565b835f528260205f2091820191015b8181106106d6575061034e565b806106e360019254611a14565b806106f0575b50016106c9565b601f8111831461070557505f81555b8d6106e9565b61072190825f5283601f60205f20920160051c82019101611bdf565b805f525f60208120818355556106ff565b80518051906001600160401b0382116104f95761074f8454611a14565b601f8111610807575b50602090601f831160011461079e579261078f836001959460209487965f926106175750508160011b915f199060031b1c19161790565b85555b01920193019290610322565b90601f19831691855f52815f20925f5b8181106107ef57509360209360019693879693838895106107d7575b505050811b018555610792565b01515f1960f88460031b161c191690555f80806107ca565b929360206001819287860151815501950193016107ae565b61083190855f5260205f20601f850160051c810191602086106104ef57601f0160051c0190611bdf565b8e610758565b835f528260205f2091820191015b8181106108525750610314565b8061085f60019254611a14565b8061086c575b5001610845565b601f8111831461088157505f81555b8e610865565b61089d90825f5283601f60205f20920160051c82019101611bdf565b805f525f602081208183555561087b565b015190508d80610282565b90601f19831691845f52815f20925f5b81811061090457509084600195949392106108ec575b505050811b0190556102f4565b01515f1960f88460031b161c191690558c80806108df565b929360206001819287860151815501950193016108c9565b61094690845f5260205f20601f850160051c810191602086106104ef57601f0160051c0190611bdf565b8c6102c2565b90601f198316918a5f52815f20925f5b818110610997575090846001959493921061097f575b505050811b018755610299565b01515f1960f88460031b161c191690558c8080610972565b9293602060018192878601518155019501930161095c565b6109d9908a5f5260205f20601f850160051c810191602086106104ef57601f0160051c0190611bdf565b8c610266565b634e487b7160e01b5f52603260045260245ffd5b005b3461009b57602036600319011261009b576004356001600160a01b0381169081900361009b576060610100604051610a2c816118a3565b5f815282602082015282604082015282808201528260808201528260a08201528260c08201528260e082015201525f52600160205260405f20604051610a71816118a3565b81548152610a8160018301611a4c565b9160208201928352610a9560028201611e25565b60408301908152610aa860038301611e25565b916060840192835260048101928354610ac08161194c565b94610ace60405196876118da565b81865260208601905f5260205f205f915b838310611193575050505060808501938452600582018054610b008161194c565b91610b0e60405193846118da565b81835260208301905f5260205f205f915b8383106110f1575050505060a0860190815260068301918254610b418161194c565b93610b4f60405195866118da565b81855260208501905f5260205f205f915b838310611082575050505060c0870192835260078401938454610b828161194c565b95610b9060405197886118da565b81875260208701905f5260205f205f915b838310611013575050505060089060e0890195865201948554610bc38161194c565b96610bd160405198896118da565b81885260208801905f5260205f205f915b838310610fab575050505090610c37610c4a926101008a01978852610c246040519b8c9b60208d525160208d01525161012060408d01526101408c0190611aec565b90518a8203601f190160608c0152611b10565b9051888203601f190160808a0152611b10565b945194601f198782030160a0880152855180825260208201916020808360051b8301019801925f915b838310610f3e5750505050505193601f198682030160c0870152845180825260208201916020808360051b8301019701925f915b838310610e895750505050505192601f198582030160e0860152835180825260208201916020808360051b8301019601925f915b838310610e255750505050505191601f1984820301610100850152825180825260208201916020808360051b8301019501925f915b838310610db35750505050505190601f1983820301610120840152815180825260208201916020808360051b8301019401925f915b838310610d525786860387f35b919395509193602080600192601f1985820301865288519081518152848060a01b03838301511683820152606080610d996040850151608060408601526080850190611aec565b930151151591015297019301930190928695949293610d45565b91939650919394602080600192601f19858203018652895190606080610e0a610df8610de88651608087526080870190611aec565b8787015186820389880152611aec565b60408601518582036040870152611b87565b93015115159101529801930193019092879695949293610d10565b9193975091939495602080600192601f198582030186528a5190606080610e6d610e5b610de88651608087526080870190611aec565b60408601518582036040870152611aec565b9301511515910152990193019301909288979695949293610cdb565b919398509193949596602080600192601f198582030186528b519060c080610f21610f0f610efd610eeb610ed9610ec9895160e08a5260e08a0190611aec565b8a8a01518982038c8b0152611aec565b604089015188820360408a0152611b87565b60608801518782036060890152611b87565b60808701518682036080880152611aec565b60a086015185820360a0870152611aec565b93015115159101529a019301930190928998979695949293610ca7565b91939950919394959697602080600192601f198582030186528c5190606080610f83610f738551608086526080860190611aec565b8686015185820388870152611aec565b9360408101516040850152015115159101529b019301930190928a9998979695949293610c73565b600460206001929d9e969798999a9b9c9d604051610fc881611888565b85548152848060a01b03858701541683820152610fe760028701611a4c565b604082015260ff600387015416151560608201528152019201920191909b9a999897969594939b610be2565b600460206001929d9e9c9d60409c98999a9b9c5161103081611888565b61103986611a4c565b8152611046858701611a4c565b8382015261105660028701611ea0565b604082015260ff600387015416151560608201528152019201920191909b9a999b989796959498610ba1565b6004602060019260409e9c9d9e9b9798999a9b5161109f81611888565b6110a886611a4c565b81526110b5858701611a4c565b838201526110c560028701611a4c565b604082015260ff600387015416151560608201528152019201920191909a99989a979695949397610b60565b6007602060019260409d9b9c9d9a999a9897985161110e816118bf565b61111786611a4c565b8152611124858701611a4c565b8382015261113460028701611ea0565b604082015261114560038701611ea0565b606082015261115660048701611a4c565b608082015261116760058701611a4c565b60a082015260ff600687015416151560c082015281520192019201919099989799969596949394610b1f565b6004602060019260409c9a9b9c999899516111ad81611888565b6111b686611a4c565b81526111c3858701611a4c565b838201526002860154604082015260ff6003870154161515606082015281520192019201919098979698959495610adf565b3461009b5761120336611963565b335f52600260205261121b60ff60405f205416611bf5565b335f52600160205260405f209060035f9201915b81518110156109f3578061127d61125b61124b60019486611c3a565b5160208082518301019101611ca1565b90604051926112698461186d565b835260208301521515604082015285611cdd565b0161122f565b3461009b57602036600319011261009b576004356001600160a01b0381169081900361009b575f52600160205260405f206112c2600182549201611a4c565b906112df6040519283928352604060208401526040830190611aec565b0390f35b3461009b576112f136611963565b335f52600260205261130960ff60405f205416611bf5565b335f52600160205260405f209060045f9201915b81518110156109f3576113308183611c3a565b5180518101906080816020840193031261009b5760208101516001600160401b03811161009b5782602061136692840101611c4e565b916040820151906001600160401b03821161009b57602061138992840101611c4e565b9061139b608060608301519201611c94565b91604051936113a985611888565b845260208401908152604084019182526060840192151583528654600160401b8110156104f957600181018089558110156109df57875f5260205f209060021b0193518051906001600160401b0382116104f9576114078654611a14565b601f81116115cc575b50602090601f83116001146115695761143f92915f918361050d5750508160011b915f199060031b1c19161790565b84555b51805160018501916001600160401b0382116104f9576114628354611a14565b601f8111611539575b50602090601f83116001146114cc57926114a7836114c6979460019a9997946003975f926108ae5750508160011b915f199060031b1c19161790565b90555b51600284015551151591019060ff801983541691151516179055565b0161131d565b90601f19831691845f52815f20925f5b818110611521575093600199989693600396938b93836114c69b981061150a575b505050811b0190556114aa565b01515f1983891b60f8161c191690558c80806114fd565b929360206001819287860151815501950193016114dc565b61156390845f5260205f20601f850160051c810191602086106104ef57601f0160051c0190611bdf565b8961146b565b90601f19831691875f52815f20925f5b8181106115b4575090846001959493921061159c575b505050811b018455611442565b01515f1960f88460031b161c1916905589808061158f565b92936020600181928786015181550195019301611579565b6115f690875f5260205f20601f850160051c810191602086106104ef57601f0160051c0190611bdf565b89611410565b3461009b5761160a36611963565b335f52600260205261162260ff60405f205416611bf5565b335f52600160205260405f209060025f9201915b81518110156109f3578061165261125b61124b60019486611c3a565b01611636565b3461009b57602036600319011261009b576004356001600160401b03811161009b573660238201121561009b57611699903690602481600401359101611916565b335f52600260205260ff60405f2054166117f1575f545f1981146117dd576001015f55335f52600160205260405f206001810182516001600160401b0381116104f9576116e68254611a14565b601f81116117ad575b506020601f821160011461174c57819061171f9394955f926117415750508160011b915f199060031b1c19161790565b90555b5f8054909155338152600260205260409020805460ff19166001179055005b015190508580610282565b601f19821690835f52805f20915f5b8181106117955750958360019596971061177d575b505050811b019055611722565b01515f1960f88460031b161c19169055848080611770565b9192602060018192868b01518155019401920161175b565b6117d790835f5260205f20601f840160051c810191602085106104ef57601f0160051c0190611bdf565b846116ef565b634e487b7160e01b5f52601160045260245ffd5b60405162461bcd60e51b815260206004820152601660248201527550726f66696c6520616c72656164792065786973747360501b6044820152606490fd5b3461009b57602036600319011261009b576004356001600160a01b038116919082900361009b576020915f526002825260ff60405f20541615158152f35b606081019081106001600160401b038211176104f957604052565b608081019081106001600160401b038211176104f957604052565b61012081019081106001600160401b038211176104f957604052565b60e081019081106001600160401b038211176104f957604052565b90601f801991011681019081106001600160401b038211176104f957604052565b6001600160401b0381116104f957601f01601f191660200190565b929192611922826118fb565b9161193060405193846118da565b82948184528183011161009b578281602093845f960137010152565b6001600160401b0381116104f95760051b60200190565b602060031982011261009b576004356001600160401b03811161009b578160238201121561009b5780600401359061199a8261194c565b926119a860405194856118da565b8284526024602085019360051b8301019181831161009b5760248101935b8385106119d557505050505090565b84356001600160401b03811161009b5782018360438201121561009b57602091611a09858360446024879601359101611916565b8152019401936119c6565b90600182811c92168015611a42575b6020831014611a2e57565b634e487b7160e01b5f52602260045260245ffd5b91607f1691611a23565b9060405191825f825492611a5f84611a14565b8084529360018116908115611aca5750600114611a86575b50611a84925003836118da565b565b90505f9291925260205f20905f915b818310611aae575050906020611a84928201015f611a77565b6020919350806001915483858901015201910190918492611a95565b905060209250611a8494915060ff191682840152151560051b8201015f611a77565b805180835260209291819084018484015e5f828201840152601f01601f1916010190565b9080602083519182815201916020808360051b8301019401925f915b838310611b3b57505050505090565b9091929394602080600192601f19858203018652885190604080611b688451606085526060850190611aec565b9385810151868501520151151591015297019301930191939290611b2c565b9080602083519182815201916020808360051b8301019401925f915b838310611bb257505050505090565b9091929394602080611bd0600193601f198682030187528951611aec565b97019301930191939290611ba3565b818110611bea575050565b5f8155600101611bdf565b15611bfc57565b60405162461bcd60e51b8152602060048201526016602482015275141c9bd99a5b1948191bd95cc81b9bdd08195e1a5cdd60521b6044820152606490fd5b80518210156109df5760209160051b010190565b81601f8201121561009b57805190611c65826118fb565b92611c7360405194856118da565b8284526020838301011161009b57815f9260208093018386015e8301015290565b5190811515820361009b57565b9060608282031261009b578151906001600160401b03821161009b57611cc8918301611c4e565b91611cda604060208401519301611c94565b90565b919091805490600160401b8210156104f957600182018082558210156109df575f52600360205f2091020182519283516001600160401b0381116104f957611d258354611a14565b601f8111611df5575b506020601f8211600114611d8a5791611d6682604093600295611a8498995f926106175750508160011b915f199060031b1c19161790565b84555b602081015160018501550151151591019060ff801983541691151516179055565b601f19821695845f52815f20965f5b818110611ddd575092611a849697600295936001938360409710611dc5575b505050811b018455611d69565b01515f1960f88460031b161c191690555f8080611db8565b83830151895560019098019760209384019301611d99565b611e1f90845f5260205f20601f840160051c810191602085106104ef57601f0160051c0190611bdf565b5f611d2e565b908154611e318161194c565b92611e3f60405194856118da565b81845260208401905f5260205f205f915b838310611e5d5750505050565b60036020600192604051611e708161186d565b611e7986611a4c565b8152848601548382015260ff60028701541615156040820152815201920192019190611e50565b908154611eac8161194c565b92611eba60405194856118da565b81845260208401905f5260205f205f915b838310611ed85750505050565b600160208192611ee785611a4c565b815201920192019190611ecb565b9080601f8301121561009b578151611f0c8161194c565b92611f1a60405194856118da565b81845260208085019260051b8201019183831161009b5760208201905b838210611f4657505050505090565b81516001600160401b03811161009b57602091611f6887848094880101611c4e565b815201910190611f3756fea264697066735822122036f8341cf03d49c5712c26ac3d041dfb5a2b44ee847049a719b239249f019f8a64736f6c634300081c0033",
    "sourcePath": "c:/Users/Hadi/Theki/contracts/UserProfileManager.sol",
    "compiler": {
        "name": "solc",
        "version": "0.8.28+commit.7893614a"
    },
    "functionHashes": {
        "addExperiences(bytes[])": "25c72737",
        "addProjects(bytes[])": "d7b82570",
        "addSoftSkills(bytes[])": "76c09c26",
        "addTechnicalSkills(bytes[])": "0d76cad9",
        "createBaseProfile(string)": "0ae1fca1",
        "getUserProfile(address)": "987ee156",
        "profileExists(address)": "05cfa06f",
        "userCounter()": "f0c37a59",
        "userProfiles(address)": "332d56d7"
    },
    "gasEstimates": {
        "creation": {
            "codeDepositCost": "1621000",
            "executionCost": "1711",
            "totalCost": "1622711"
        },
        "external": {
            "addExperiences(bytes[])": "infinite",
            "addProjects(bytes[])": "infinite",
            "addSoftSkills(bytes[])": "infinite",
            "addTechnicalSkills(bytes[])": "infinite",
            "createBaseProfile(string)": "infinite",
            "getUserProfile(address)": "infinite",
            "profileExists(address)": "2374",
            "userCounter()": "2428",
            "userProfiles(address)": "infinite"
        }
    }
}